:020000041A00E0
:10000000008000101911001AF501001AFB01001AF6
:100010000102001A0702001A0D02001AE264FF53DF
:10002000000000000000000000000000F12E001A97
:100030001902001A000000005131001AB931001AEB
:100040000D33001A2B02001A2B02001A00000000C8
:100050002B02001A2B02001A2B02001A2B02001A84
:10006000A551001A2B02001A2B02001A2B02001AAB
:100070002B02001A2B02001A2B02001A2B02001A64
:100080002B02001A2B02001A2B02001A2B02001A54
:100090002B02001A2B02001A2B02001A2B02001A44
:1000A0002B02001A2B02001A2B02001A2B02001A34
:1000B0002B02001A2B02001A2B02001A2B02001A24
:1000C0008D0B001AED0B001A4D0C001AAD0C001A26
:1000D0000D0D001A6D0D001ACD0D001A2D0E001A0F
:1000E0002B02001A2B02001A2B02001A2B02001AF4
:1000F000000000002B02001A2B02001A2B02001A2B
:10010000000000002B02001A2B02001A2B02001A1A
:100110002B02001A08B4001A00000010EC090000BD
:1001200008B4001A000008100000000008B4001A0B
:10013000000000200000000008B4001A0080002029
:100140000000000008B4001A00C0002000000000F9
:10015000EC09001000220000000008100000000060
:1001600000000020000000000080002000000000CF
:1001700000C000200000000080B489B000AFF8602B
:10018000B9607A60BB68FB61FB68BB6100237B617F
:100190000AE0BA69131DBB61FB69191DF961126898
:1001A0001A607B6904337B617A697B689A42F0D379
:1001B00000BF2437BD465DF8047B704780B485B02E
:1001C00000AF786039607B68FB600023BB6007E0AC
:1001D000FB681A1DFA6000221A60BB680433BB601A
:1001E000BA683B689A42F3D300BF1437BD465DF846
:1001F000047B704780B400AFFEE780B400AFFEE739
:1002000080B400AFFEE780B400AFFEE780B400AF7B
:10021000FEE780B400AFFEE780B400AFFEE780B435
:1002200000AFFEE780B400AFFEE780B400AFFEE7AA
:10023000FFFFFFFFFFFFFFFFFFFFFFFFFFFFFFFFCE
:10024000FFFFFFFFFFFFFFFFFFFFFFFFFFFFFFFFBE
:10025000FFFFFFFFFFFFFFFFFFFFFFFFFFFFFFFFAE
:10026000FFFFFFFFFFFFFFFFFFFFFFFFFFFFFFFF9E
:10027000FFFFFFFFFFFFFFFFFFFFFFFFFFFFFFFF8E
:10028000FFFFFFFFFFFFFFFFFFFFFFFFFFFFFFFF7E
:10029000FFFFFFFFFFFFFFFFFFFFFFFFFFFFFFFF6E
:1002A000FFFFFFFFFFFFFFFFFFFFFFFFFFFFFFFF5E
:1002B000FFFFFFFFFFFFFFFFFFFFFFFFFFFFFFFF4E
:1002C000FFFFFFFFFFFFFFFFFFFFFFFFFFFFFFFF3E
:1002D000FFFFFFFFFFFFFFFFFFFFFFFFFFFFFFFF2E
:1002E000FFFFFFFFFFFFFFFFFFFFFFFFFFFFFFFF1E
:1002F000FFFFFFFFFFFFFFFFFFFFFFFFFFFFFFFF0E
:1003000080B483B000AF0346FB7197F90730002B30
:100310000BDBFB7903F01F02074997F907305B09F4
:10032000012000FA02F241F8232000BF0C37BD463D
:100330005DF8047B704700BF00E100E080B483B04B
:1003400000AF03463960FB7197F90730002B0ADBD9
:100350003B68DAB20C4997F907305201D2B20B442C
:1003600083F800230AE03B68DAB20849FB7903F01E
:100370000F03043B5201D2B20B441A7600BF0C3774
:10038000BD465DF8047B704700E100E000ED00E051
:1003900080B485B000AF0346FB710B46BB711346BA
:1003A0007B71FB79DB0003F01803FB60BB795B0119
:1003B000DAB27B7903F01F031A43FB6802FA03F3F6
:1003C000BB600F4AFB799B08DBB203F5607352F800
:1003D0002330FF21FA6801FA02F2D2431A40084999
:1003E000FB799B08DBB21846BB681A4300F56073C3
:1003F00041F8232000BF1437BD465DF8047B7047E9
:100400000060084080B483B000AF786000BF0C3754
:10041000BD465DF8047B704780B483B000AF786060
:1004200039607B681A683B68DB431A407B681A6056
:1004300000BF0C37BD465DF8047B704780B483B0C5
:1004400000AF786039607B683A689A6000BF0C370B
:10045000BD465DF8047B704780B483B000AF786020
:1004600039607B683A685A6100BF0C37BD465DF859
:10047000047B704780B483B000AF78607B68DB6931
:1004800018460C37BD465DF8047B704780B483B0D6
:1004900000AF78607B681B6A18460C37BD465DF874
:1004A000047B704780B483B000AF786039607B68AC
:1004B0003A685A6200BF0C37BD465DF8047B70474E
:1004C00080B584B000AF786002F0E8FD08497A6832
:1004D00013465B001344DB000B440C331B68FB60CA
:1004E00002F00AFEFB6818461037BD4680BD00BF0B
:1004F000602B001080B584B000AF78600B497A683B
:1005000013465B001344DB000B4414331B680021CB
:10051000184601F0BFF9F860FB68012B01D10123F7
:1005200000E0002318461037BD4680BD602B001048
:1005300080B58AB002AF0023FB6172E06D49FA69B1
:1005400013465B001344DB000B4400221A70694918
:10055000FA6913465B001344DB000B4404334FF08D
:10056000FF321A606349FA6913465B001344DB00EB
:100570000B4408334FF0FF321A605E49FA691346A4
:100580005B001344DB000B440C334FF0FF321A6066
:1005900003220021012000F0B7FF5649FA691346F3
:1005A0005B001344DB000B4410331860032200216E
:1005B000012000F0A9FF4F49FA6913465B0013447C
:1005C000DB000B44143318604A49FA6913465B0098
:1005D0001344DB000B4410331B68002B09D14FF090
:1005E000A00383F31188BFF36F8FBFF34F8F7B613D
:1005F000FEE74049FA6913465B001344DB000B44F5
:1006000014331B68002B09D14FF0A00383F311882A
:10061000BFF36F8FBFF34F8F3B61FEE7FB69013381
:10062000FB61FB69032B89DD002301930123009308
:100630000023B4223049314801F008FCB861BB699D
:10064000012B09D04FF0A00383F31188BFF36F8F04
:10065000BFF34F8FFB60FEE700230193012300935C
:100660000023B4222649274801F0F0FBB861BB699A
:10067000012B09D04FF0A00383F31188BFF36F8FD4
:10068000BFF34F8FBB60FEE700230193012300936C
:100690000023B4221C491D4801F0D8FBB861BB6996
:1006A000012B09D04FF0A00383F31188BFF36F8FA4
:1006B000BFF34F8F7B60FEE700230193012300937C
:1006C0000023B4221249134801F0C0FBB861BB6992
:1006D000012B09D04FF0A00383F31188BFF36F8F74
:1006E000BFF34F8F3B60FEE700F056F900BF2037A5
:1006F000BD4680BD602B0010B8AD001A4109001A3C
:10070000C4AD001A5709001AD0AD001A6D09001ABD
:10071000DCAD001A8309001A80B582B000AF7860A2
:1007200048497A6813465B001344DB000B441B788E
:10073000032B7FD801A252F823F000BF4D07001A07
:10074000C107001A7D07001AF107001A3D497A68AF
:1007500013465B001344DB000B4410331B684FF05F
:10076000FF31184601F096F836497A6813465B0067
:100770001344DB000B4402221A705FE0324A7B68AC
:10078000134493F90030184604F0C8FC0346002BCC
:100790000CD12C497A6813465B001344DB000B44F0
:1007A00001221A70786800F051F847E025497A680C
:1007B00013465B001344DB000B4400221A703DE03B
:1007C00020497A6813465B001344DB000B44103366
:1007D0001B684FF0FF31184601F05CF819497A6840
:1007E00013465B001344DB000B4403221A7025E020
:1007F000154A7B68134493F90030184604F08EFCC8
:100800000346002B0CD00F497A6813465B00134453
:10081000DB000B4400221A70786800F033F80DE01A
:1008200008497A6813465B001344DB000B4401223D
:100830001A7003E0786800F06BF800BF00BF08375B
:10084000BD4680BD602B0010B4AD001A80B584B0E9
:1008500000AF786001F0CCFDF86002F01FFC0849A1
:100860007A6813465B001344DB000B440433FA68D8
:100870001A6002F041FC00BF1037BD4680BD00BFCA
:10088000602B001080B584B000AF786001F0B0FD3F
:10089000F86002F003FC1D497A6813465B001344BC
:1008A000DB000B440833FA681A6018497A6813466B
:1008B0005B001344DB000B440833196813487A6863
:1008C00013465B001344DB00034404331B68C91A5E
:1008D0000E487A6813465B001344DB0003440C3374
:1008E000196002F009FC09497A6813465B00134459
:1008F000DB000B441433186800230022002100F0B1
:100900005BFE00BF1037BD4680BD00BF602B0010EE
:1009100080B582B000AF786002F0C0FB07497A680A
:1009200013465B001344DB000B4400221A7002F0F4
:10093000E3FB00BF0837BD4680BD00BF602B001041
:1009400080B582B000AF78600020FFF7E5FE282078
:1009500001F02AFCF8E780B582B000AF7860012092
:10096000FFF7DAFE282001F01FFCF8E780B582B01F
:1009700000AF78600220FFF7CFFE282001F014FCC2
:10098000F8E780B582B000AF78600320FFF7C4FEBF
:10099000282001F009FCF8E780B500AF5248FFF7C6
:1009A00031FD042200210020FFF7F2FC01214E4816
:1009B000FFF732FD01214C48FFF74EFD04220021D4
:1009C0000120FFF7E5FC02214748FFF725FD022142
:1009D0004548FFF733FD082200210220FFF7D8FC2D
:1009E00004214148FFF718FD04213F48FFF734FD7B
:1009F000082200210320FFF7CBFC08213A48FFF72B
:100A00000BFD08213848FFF719FD092200210420B9
:100A1000FFF7BEFC10213448FFF7FEFC10213248DE
:100A2000FFF71AFD092200210520FFF7B1FC202164
:100A30002D48FFF7F1FC20212B48FFF7FFFC09228E
:100A400001210620FFF7A4FC40212748FFF7E4FC22
:100A500040212548FFF700FD092201210720FFF76B
:100A600097FC80212048FFF7D7FC80211E48FFF724
:100A7000E5FC05212020FFF761FC2020FFF740FC6A
:100A800005212120FFF75AFC2120FFF739FC052121
:100A90002220FFF753FC2220FFF732FC0521232000
:100AA000FFF74CFC2320FFF72BFC05212420FFF748
:100AB00045FC2420FFF724FC05212520FFF73EFC00
:100AC0002520FFF71DFC05212620FFF737FC2620F7
:100AD000FFF716FC05212720FFF730FC2720FFF742
:100AE0000FFC00BF80BD00BF0070084080B586B01D
:100AF00000AF7860EFF311824FF0A00383F3118809
:100B0000BFF36F8FBFF34F8FFA60BB60FB687B61F1
:100B100001F07EFC08497A6813465B001344DB0051
:100B20000B44043318607B693B613B6983F3118894
:100B300000BF1837BD4680BD602B001080B586B061
:100B400000AF7860EFF311824FF0A00383F31188B8
:100B5000BFF36F8FBFF34F8FFA60BB60FB687B61A1
:100B600001F056FC08497A6813465B001344DB0029
:100B70000B44083318607B693B613B6983F3118840
:100B800000BF1837BD4680BD602B001080B582B015
:100B900000AF00237B601248FFF778FC034603F0A8
:100BA0000103002B0DD001210D48FFF77BFC002035
:100BB000FFF79CFF0B4B1B693A1D1146184600F0CE
:100BC000DFFD7B68002B07D0074B4FF080521A6087
:100BD000BFF34F8FBFF36F8F00BF0837BD4680BD97
:100BE00000700840602B001004ED00E080B582B07A
:100BF00000AF00237B601248FFF73CFC034603F084
:100C00000203002B0DD002210D48FFF74BFC002002
:100C1000FFF794FF0B4B1B693A1D1146184600F075
:100C2000AFFD7B68002B07D0074B4FF080521A6056
:100C3000BFF34F8FBFF36F8F00BF0837BD4680BD36
:100C400000700840602B001004ED00E080B582B019
:100C500000AF00237B601248FFF718FC034603F047
:100C60000403002B0DD004210D48FFF71BFC0120CD
:100C7000FFF73CFF0B4B9B6A3A1D1146184600F0EC
:100C80007FFD7B68002B07D0074B4FF080521A6026
:100C9000BFF34F8FBFF36F8F00BF0837BD4680BDD6
:100CA00000700840602B001004ED00E080B582B0B9
:100CB00000AF00237B601248FFF7DCFB034603F024
:100CC0000803002B0DD008210D48FFF7EBFB012096
:100CD000FFF734FF0B4B9B6A3A1D1146184600F094
:100CE0004FFD7B68002B07D0074B4FF080521A60F6
:100CF000BFF34F8FBFF36F8F00BF0837BD4680BD76
:100D000000700840602B001004ED00E080B582B058
:100D100000AF00237B601248FFF7B8FB034603F0E7
:100D20001003002B0DD010210D48FFF7BBFB022054
:100D3000FFF7DCFE0B4B1B6C3A1D1146184600F00A
:100D40001FFD7B68002B07D0074B4FF080521A60C5
:100D5000BFF34F8FBFF36F8F00BF0837BD4680BD15
:100D600000700840602B001004ED00E080B582B0F8
:100D700000AF00237B601248FFF77CFB034603F0C3
:100D80002003002B0DD020210D48FFF78BFB022004
:100D9000FFF7D4FE0B4B1B6C3A1D1146184600F0B2
:100DA000EFFC7B68002B07D0074B4FF080521A6096
:100DB000BFF34F8FBFF36F8F00BF0837BD4680BDB5
:100DC00000700840602B001004ED00E080B582B098
:100DD00000AF00237B601248FFF758FB034603F087
:100DE0004003002B0DD040210D48FFF75BFB032093
:100DF000FFF77CFE0B4B9B6D3A1D1146184600F029
:100E0000BFFC7B68002B07D0074B4FF080521A6065
:100E1000BFF34F8FBFF36F8F00BF0837BD4680BD54
:100E200000700840602B001004ED00E080B582B037
:100E300000AF00237B601248FFF71CFB034603F062
:100E40008003002B0DD080210D48FFF72BFB0320E2
:100E5000FFF774FE0B4B9B6D3A1D1146184600F0D0
:100E60008FFC7B68002B07D0074B4FF080521A6035
:100E7000BFF34F8FBFF36F8F00BF0837BD4680BDF4
:100E800000700840602B001004ED00E080B586B0D3
:100E900002AF04F097F92B4805F01AFF00230193E5
:100EA000012300930023B4222749284800F0CEFFF5
:100EB000F860FB68012B09D04FF0A00383F3118881
:100EC000BFF36F8FBFF34F8FBB60FEE7002301932B
:100ED000012300930023B4221D491E4800F0B6FFF1
:100EE000F86000230193012300930023B4221A49E0
:100EF0001A4800F0ABFFF860002301930123009330
:100F00000023B4221649174800F0A0FFF860FB68E0
:100F1000012B09D04FF0A00383F31188BFF36F8F2B
:100F2000BFF34F8F7B60FEE7FFF702FB01F070F924
:100F30004FF0A00383F31188BFF36F8FBFF34F8F80
:100F40003B60FEE7E8AD001AF8AD001A690F001A21
:100F500004AE001AC10F001A10AE001A1910001AC0
:100F60001CAE001A7110001A80B586B000AF786010
:100F70004FF4FA737B614FF47A733B6101F038FAF6
:100F80000346FB600020FFF7B5FA0346002B03D0B1
:100F90000020FFF795FA786101212A2004F074F807
:100FA000786901F001F900212A2004F06DF87B69CD
:100FB0005A0007F10C031146184601F07BF8E1E7EF
:100FC00080B586B000AF78604FF4FA737B614FF460
:100FD0007A733B6101F00CFA0346FB600120FFF7D6
:100FE00089FA0346002B03D00120FFF769FA7861E4
:100FF00001212B2004F048F8786901F0D5F8002190
:101000002B2004F041F87B695A0007F10C031146CC
:10101000184601F04FF8E1E780B586B000AF786080
:101020004FF4FA737B614FF47A733B6101F0E0F99E
:101030000346FB600220FFF75DFA0346002B03D056
:101040000220FFF73DFA786101212C2004F01CF802
:10105000786901F0A9F800212C2004F015F87B69CB
:101060005A0007F10C031146184601F023F8E1E796
:1010700080B586B000AF78604FF4FA737B614FF4AF
:101080007A733B6101F0B4F90346FB600320FFF77C
:1010900031FA0346002B03D00320FFF711FA7861E1
:1010A00001212D2003F0F0FF786901F07DF8002187
:1010B0002D2003F0E9FF7B695A0007F10C0311466C
:1010C000184600F0F7FFE1E780B582B000AF0648B0
:1010D00005F0FEFD4FF0A00383F31188BFF36F8F7F
:1010E000BFF34F8F7B60FEE728AE001A80B400AFDD
:1010F00000BFBD465DF8047B704780B400AF00BF01
:10110000BD465DF8047B704780B400AF00BFBD46AC
:101110005DF8047B7047FFFF80B588B000AF72B602
:10112000294B7B617B69294A1A607B690433284A11
:101130001A60284B3B610023FB6109E0FB699B00BF
:101140003A6913444FF0FF321A60FB690133FB61C7
:10115000FB69072BF2D962B61F4BBB6113E0BB6979
:101160001A1DBA611B68FB60BB691A1DBA611B6856
:10117000BB60BB691A1DBA611B687B607A68B9687D
:10118000F868FEF7F9FFBB69144A9342E7D30DE014
:10119000BB691A1DBA611B68BB60BB691A1DBA61C5
:1011A0001B687B607968B868FFF708F8BB690C4A70
:1011B0009342EDD303F06AFD05F04EF9FFF796FF79
:1011C000FFF764FE30BFFDE7003105400010DF107F
:1011D000FFF7DF0180E200E01401001A5001001A5D
:1011E0007801001A80B483B000AF786039607B6802
:1011F00009221A604FF0FF3318460C37BD465DF8E0
:10120000047B704780B485B000AFF860B9607A6045
:10121000FB6858221A604FF0FF3318461437BD465A
:101220005DF8047B704780B483B000AF78603960AC
:101230003B68022B01D8012304E07B6809221A6075
:101240004FF0FF3318460C37BD465DF8047B7047FE
:1012500080B485B000AFF860B9607A603B60FB682D
:1012600058221A604FF0FF3318461437BD465DF818
:10127000047B704780B586B000AFF860B9607A60D3
:101280003B6000237B61BB68022B23D818E002F08F
:101290005CFA38613B69B3F1FF3F11D07B695A1C9E
:1012A0007A617A6813443A69D2B21A703B690D2B9D
:1012B00002D03B690A2B03D102F047FA7B690EE0AA
:1012C0007A693B689A42E2D3FB6813221A604FF0B6
:1012D000FF3304E0FB6813221A604FF0FF33184617
:1012E0001837BD4680BD80B586B000AFF860B960E4
:1012F0007A603B60BB68022B12D800237B6109E057
:101300007A687B6913441B78184602F011FA7B69EE
:1013100001337B617A693B689A42F1D33B6804E010
:10132000FB6813221A604FF0FF3318461837BD468A
:1013300080BDFFFF80B485B000AF786039600B4B93
:101340001B68002B02D1094B094A1A60074B1B6826
:10135000FB60064B1A683B681344044A1360FB6841
:1013600018461437BD465DF8047B7047EC09001041
:10137000EC2B001080B584B000AF78600023FB60D8
:101380007B6803F00703002B04D07B6823F007037E
:1013900008337B6000F082FF184B1B68002B05D1DF
:1013A000174B23F007031A46144B1A60154B1A68A3
:1013B0007B68134441F6F772934213D8114B1A68B5
:1013C0007B681A440F4B1B689A420BD90B4B1A6867
:1013D0000C4B1B681344FB600A4B1A687B68134470
:1013E000084A136000F068FFFB68002B01D1FFF78B
:1013F0006BFEFB6818461037BD4680BDF42900100F
:10140000F8090010F029001080B485B000AF7860B2
:101410007B68002B09D04FF0A00383F31188BFF342
:101420006F8FBFF34F8FFB60FEE700BF1437BD46E1
:101430005DF8047B7047FFFF80B584B000AF786033
:1014400039607B68FB60FB68002B09D14FF0A0037B
:1014500083F31188BFF36F8FBFF34F8FBB60FEE73D
:1014600001F01CFEFB681A68FB68DB6BF968096C0D
:1014700001FB03F31A44FB685A60FB6800229A637D
:10148000FB681A68FB689A60FB681A68FB68DB6B8C
:10149000013BF968096C01FB03F31A44FB68DA604D
:1014A000FB68FF2283F84420FB68FF2283F8452075
:1014B0003B68002B14D1FB681B69002B1AD0FB681A
:1014C0001033184601F016F90346002B12D00D4BCD
:1014D0004FF080521A60BFF34F8FBFF36F8F09E058
:1014E000FB681033184600F0C7FBFB68243318462E
:1014F00000F0C2FB01F000FE012318461037BD4684
:1015000080BD00BF04ED00E080B58AB002AFF86096
:10151000B9601346FB71FB68002B09D14FF0A003A3
:1015200083F31188BFF36F8FBFF34F8F3B61FEE7EB
:10153000BB68002B02D10023FB6104E0FB68BA68A2
:1015400002FB03F3FB61FB6948331846FFF712FF08
:10155000B861BB69002B0BD0BB6948337B61FA795A
:10156000BB69009313467A69B968F86800F005F81A
:10157000BB6918462037BD4680BD80B584B000AF3A
:10158000F860B9607A60FB70BB68002B03D1BB695F
:10159000BA691A6002E0BB697A681A60BB69FA68C6
:1015A000DA63BB69BA681A640121B869FFF744FFBE
:1015B00000BF1037BD4680BD80B58CB000AFF8606D
:1015C000B9607A603B600023FB62FB68BB62BB6A68
:1015D000002B09D14FF0A00383F31188BFF36F8F65
:1015E000BFF34F8F3B62FEE7BB68002B03D1BB6AA2
:1015F0001B6C002B01D1012300E00023002B09D13B
:101600004FF0A00383F31188BFF36F8FBFF34F8FA9
:10161000FB61FEE73B68022B03D1BB6ADB6B012B4E
:1016200001D1012300E00023002B09D14FF0A003DA
:1016300083F31188BFF36F8FBFF34F8FBB61FEE75A
:1016400001F02CFDBB6A9A6BBB6ADB6B9A4202D33A
:101650003B68022B29D13A68B968B86A00F022FACF
:101660007862BB6A5B6A002B10D0BB6A24331846D1
:1016700001F040F80346002B13D0404B4FF080524E
:101680001A60BFF34F8FBFF36F8F0AE07B6A002BA6
:1016900007D03A4B4FF080521A60BFF34F8FBFF321
:1016A0006F8F01F029FD012363E07B68002B03D1DC
:1016B00001F022FD00235CE0FB6A002B06D107F15C
:1016C0001003184601F078F80123FB6201F014FDC5
:1016D00000F0E4FD01F0E2FCBB6A93F844305BB239
:1016E000B3F1FF3F03D1BB6A002283F84420BB6AF9
:1016F00093F845305BB2B3F1FF3F03D1BB6A0022E0
:1017000083F8452001F0F8FC3A1D07F1100311465B
:10171000184601F067F80346002B24D1B86A00F0A0
:1017200093FA0346002B18D0BB6A10337A6811462F
:10173000184600F0BBFFB86A00F01EFA00F0BCFDCE
:101740000346002B7FF47CAF0C4B4FF080521A60A5
:10175000BFF34F8FBFF36F8F72E7B86A00F00CFAD8
:1017600000F0AAFD6CE7B86A00F006FA00F0A4FDEC
:10177000002318463037BD4680BD00BF04ED00E0B1
:1017800080B58EB000AF786039607B683B633B6B9F
:10179000002B09D14FF0A00383F31188BFF36F8FA3
:1017A000BFF34F8F3B62FEE73B6B1B6C002B09D0F6
:1017B0004FF0A00383F31188BFF36F8FBFF34F8FF8
:1017C000FB61FEE73B6B1B68002B03D13B6B5B6847
:1017D000002B01D1012300E00023002B09D14FF0A1
:1017E000A00383F31188BFF36F8FBFF34F8FBB61EB
:1017F000FEE701F02FFDEFF311824FF0A00383F31A
:101800001188BFF36F8FBFF34F8F7A613B617B69A4
:10181000FB623B6B9B6BBB623B6BDB6BBA6A9A42B6
:101820002BD23B6B93F8453087F82730BB6A5A1CA4
:101830003B6B9A6397F92730B3F1FF3F12D13B6BB3
:101840005B6A002B16D03B6B2433184600F052FF26
:101850000346002B0ED03B68002B0BD03B680122C7
:101860001A6007E097F827300133DBB25AB23B6BBE
:1018700083F8452001237B6301E000237B63FB6A3F
:10188000FB60FB6883F311887B6B18463837BD46D5
:1018900080BDFFFF80B58CB000AF78603960002359
:1018A000FB627B687B620023BB627B6A002B09D1F1
:1018B0004FF0A00383F31188BFF36F8FBFF34F8FF7
:1018C000BB61FEE77B6A1B6C002B09D04FF0A003C5
:1018D00083F31188BFF36F8FBFF34F8F7B61FEE7F8
:1018E00001F0DCFB7B6A9B6B3B623B6A002B24D0E4
:1018F0003B6A5A1E7B6A9A637B6A1B68002B04D181
:1019000001F030FA02467B6A5A607B6A1B69002B41
:101910000FD07B6A1033184600F0ECFE0346002B14
:1019200007D0534B4FF080521A60BFF34F8FBFF375
:101930006F8F01F0E1FB012396E03B68002B10D193
:10194000BB6A002B09D04FF0A00383F31188BFF3CB
:101950006F8FBFF34F8F3B61FEE701F0CDFB00239C
:1019600082E0FB6A002B06D107F10803184600F05D
:1019700023FF0123FB6201F0BFFB00F08FFC01F0AD
:101980008DFB7B6A93F844305BB2B3F1FF3F03D128
:101990007B6A002283F844207B6A93F845305BB26F
:1019A000B3F1FF3F03D17B6A002283F8452001F0A9
:1019B000A3FB3A4607F108031146184600F012FF50
:1019C0000346002B32D1786A00F028F90346002B39
:1019D00026D07B6A1B68002B09D101F05FFB7B6A74
:1019E0005B68184601F016F8B86201F085FB7B6A67
:1019F00024333A681146184600F058FE786A00F021
:101A0000BBF800F059FC0346002B7FF469AF184B7C
:101A10004FF080521A60BFF34F8FBFF36F8F5FE7B5
:101A2000786A00F0A9F800F047FC59E7786A00F0FE
:101A3000A3F800F041FC786A00F0F0F80346002BB0
:101A40003FF44EAFBB6A002B0DD001F027FB786A44
:101A500000F010F8F8617B6A5B68F969184601F0DC
:101A6000E3F801F049FB002318463037BD4680BD3E
:101A700004ED00E080B485B000AF78607B685B6AFD
:101A8000002B06D07B681B6B1B68C3F10703FB6050
:101A900001E00023FB60FB6818461437BD465DF883
:101AA000047B704780B586B000AFF860B9607A609B
:101AB00000237B61FB689B6B3B61FB681B6C002B0D
:101AC0000DD1FB681B68002B4DD1FB685B68184685
:101AD00001F026F87861FB6800225A6043E07B68D9
:101AE000002B19D1FB689868FB681B6C1A46B96813
:101AF00004F096FFFB689A68FB681B6C1A44FB684D
:101B00009A60FB689A68FB685B689A422BD3FB6813
:101B10001A68FB689A6026E0FB68D868FB681B6C53
:101B20001A46B96804F07CFFFB68DA68FB681B6C36
:101B30005B421A44FB68DA60FB68DA68FB681B6882
:101B40009A4207D2FB685A68FB681B6C5B421A44D6
:101B5000FB68DA607B68022B05D13B69002B02D061
:101B60003B69013B3B613B695A1CFB689A637B699B
:101B700018461837BD4680BD80B584B000AF786088
:101B800001F08CFA7B6893F84530FB7311E07B68B9
:101B90005B6A002B12D07B682433184600F0AAFD44
:101BA0000346002B01D000F075FEFB7B013BDBB24E
:101BB000FB7397F90F30002BE9DC00E000BF7B6876
:101BC000FF2283F8452001F097FA01F067FA7B685D
:101BD00093F84430BB7311E07B681B69002B12D073
:101BE0007B681033184600F085FD0346002B01D0BA
:101BF00000F050FEBB7B013BDBB2BB7397F90E30AC
:101C0000002BE9DC00E000BF7B68FF2283F8442062
:101C100001F072FA00BF1037BD4680BD80B584B0B8
:101C200000AF786001F03AFA7B689B6B002B02D121
:101C30000123FB6001E00023FB6001F05DFAFB681B
:101C400018461037BD4680BD80B584B000AF7860BF
:101C500001F024FA7B689A6B7B68DB6B9A4202D1B5
:101C60000123FB6001E00023FB6001F045FAFB6803
:101C700018461037BD4680BD80B483B000AF786091
:101C80007B6803F108027B685A607B684FF0FF3283
:101C90009A607B6803F108027B68DA607B6803F175
:101CA00008027B681A617B6800221A6000BF0C374B
:101CB000BD465DF8047B704780B483B000AF7860A8
:101CC0007B6800221A6100BF0C37BD465DF8047BBB
:101CD000704780B485B000AF786039607B685B681E
:101CE000FB603B68FA685A60FB689A683B689A60D8
:101CF000FB689B683A685A60FB683A689A603B6880
:101D00007A681A617B681B685A1C7B681A6000BF7E
:101D10001437BD465DF8047B704780B485B000AFD2
:101D2000786039603B681B68BB60BB68B3F1FF3FFC
:101D300003D17B681B69FB600CE07B680833FB60A8
:101D400002E0FB685B68FB60FB685B681B68BA6865
:101D50009A42F6D2FB685A683B685A603B685B68F7
:101D60003A689A603B68FA689A60FB683A685A6019
:101D70003B687A681A617B681B685A1C7B681A602A
:101D800000BF1437BD465DF8047B704780B485B052
:101D900000AF78607B681B69FB607B685B687A6872
:101DA00092689A607B689B687A6852685A60FB68A0
:101DB0005B687A689A4203D17B689A68FB685A60CC
:101DC0007B6800221A61FB681B685A1EFB681A6058
:101DD000FB681B6818461437BD465DF8047B7047E6
:101DE00080B586B000AF786039607B683B610023C6
:101DF000FB603B687B6101F051F93B697A691946E8
:101E0000064804F003FF00BFFB68002BFCD001F084
:101E100073F900BF1837BD4680BD00BF3CAE001A45
:101E200080B582B000AF786039603968054804F049
:101E3000EDFE05495020FFF7D3FF00BF0837BD4630
:101E400080BD00BFC0AE001AA0AE001A80B58CB035
:101E500004AFF860B9603B601346FB80FB889B00D1
:101E60001846FFF787FA78617B69002B0ED058205F
:101E7000FFF780FAF861FB69002B03D0FB697A69F0
:101E80001A6305E07869FFF7BFFA01E00023FB6100
:101E9000FB69002B13D0FA8800230393FB6902939C
:101EA000FB6A0193BB6A00933B68B968F86800F06D
:101EB0000EF8F86900F094F80123BB6102E04FF0DE
:101EC000FF33BB61BB6918462037BD4680BD80B576
:101ED00088B000AFF860B9607A603B603B6B186B0C
:101EE0007B689B001A46A52104F034FE3B6B1A6BFD
:101EF0007B6803F18043013B9B001344BB61BB69DA
:101F000023F00703BB61BB6903F00703002B09D073
:101F10004FF0A00383F31188BFF36F8FBFF34F8F90
:101F20007B61FEE73B6BBA695A640023FB6112E0F8
:101F3000BA68FB69134419783A6BFB69134434336C
:101F40000A461A70BA68FB6913441B78002B06D046
:101F5000FB690133FB61FB690F2BE9D900E000BF8E
:101F60003B6B002283F84320BB6A062B01D9062372
:101F7000BB623B6BBA6ADA623B6BBA6A9A643B6BD0
:101F80000022DA643B6B04331846FFF795FE3B6B87
:101F900018331846FFF790FE3B6B3A6B1A61BB6A29
:101FA000C3F107023B6B9A613B6B3A6B5A623B6B26
:101FB00000221A653B6B002283F854203A68F968C6
:101FC000B86900F037FF02463B6B1A60FB6A002BD2
:101FD00002D0FB6A3A6B1A6000BF2037BD4680BD55
:101FE00080B582B000AF786001F058F82A4B1B68CA
:101FF0000133294A1360294B1B68002B09D1274A5A
:102000007B681360244B1B68012B10D100F066FC29
:102010000DE0234B1B68002B09D1204B1B68DA6AAB
:102020007B68DB6A9A4202D81C4A7B6813601D4BAE
:102030001B6801331B4A13607B68DB6A01229A40EC
:10204000194B1B681343184A13607B68DA6A1346FE
:102050009B0013449B00154A1A447B6804331946BD
:102060001046FFF736FE01F047F80D4B1B68002BBA
:102070000ED00A4B1B68DA6A7B68DB6A9A4207D289
:102080000B4B4FF080521A60BFF34F8FBFF36F8F2F
:1020900000BF0837BD4680BDE42A0010F8290010B3
:1020A000F02A0010002B0010EC2A0010FC29001070
:1020B00004ED00E080B58AB000AF7860396000239D
:1020C0007B627B68002B09D14FF0A00383F311885A
:1020D000BFF36F8FBFF34F8F7B61FEE73B68002B31
:1020E00009D14FF0A00383F31188BFF36F8FBFF3C3
:1020F0004F8F3B61FEE7294B1B68002B09D04FF047
:10210000A00383F31188BFF36F8FBFF34F8FFB6082
:10211000FEE700F0C3F8224B1B683B627B681B683C
:102120003A681344FB617B681B683A6A9A420BD297
:102130007B681B68FA699A4211D2FA693B6A9A4233
:102140000DD901237B620AE07B681B68FA699A4219
:1021500003D3FA693B6A9A4201D901237B627B6807
:10216000FA691A607B6A002B06D0FA693B6AD31AB7
:102170000021184600F00AFE00F09EF8B861BB6925
:10218000002B07D1074B4FF080521A60BFF34F8FDF
:10219000BFF36F8F00BF2837BD4680BD0C2B0010EA
:1021A000E82A001004ED00E080B584B000AF78604C
:1021B0000023FB607B68002B16D0134B1B68002BA1
:1021C00009D04FF0A00383F31188BFF36F8FBFF3E3
:1021D0004F8FBB60FEE700F061F80021786800F0E7
:1021E000D5FD00F069F8F860FB68002B07D1074BBC
:1021F0004FF080521A60BFF34F8FBFF36F8F00BF55
:102200001037BD4680BD00BF0C2B001004ED00E070
:1022100080B586B002AF1B4B0193002300930023CF
:102220005A2219491948FFF711FEF860FB68012B83
:1022300015D14FF0A00383F31188BFF36F8FBFF365
:102240004F8FBB60124B4FF0FF321A60114B0122CF
:102250001A60114B00221A6000F072FE0DE0FB685C
:10226000B3F1FF3F09D14FF0A00383F31188BFF30F
:102270006F8FBFF34F8F7B60FEE700BF1037BD4607
:1022800080BD00BF082B001008AF001AAD28001A4F
:10229000042B0010F02A0010E82A001080B400AFD0
:1022A000044B1B680133034A136000BFBD465DF851
:1022B000047B70470C2B001080B584B000AF002366
:1022C000FB600023BB60414B1B68002B09D14FF022
:1022D000A00383F31188BFF36F8FBFF34F8F3B6071
:1022E000FEE700F0DBFE394B1B68013B374A136009
:1022F000364B1B68002B61D1354B1B68002B5DD022
:102300002EE0344BDB68DB68FB60FB681833184653
:10231000FFF73CFDFB6804331846FFF737FDFB6809
:10232000DB6A01229A402C4B1B6813432A4A136034
:10233000FB68DA6A13469B0013449B00274A1A4441
:10234000FB68043319461046FFF7C3FCFB68DA6AE2
:10235000234B1B68DB6A9A4202D3224B01221A608C
:102360001C4B1B68002BCCD1FB68002B01D000F06C
:102370002BFB1D4B1B687B607B68002B10D000F093
:1023800059F80346002B02D0164B01221A607B68D5
:10239000013B7B607B68002BF1D1134B00221A605C
:1023A000104B1B68002B09D00123BB600F4B4FF073
:1023B00080521A60BFF34F8FBFF36F8F00F09CFE07
:1023C000BB6818461037BD4680BD00BF0C2B0010FF
:1023D000E42A0010B82A0010EC2A0010FC29001092
:1023E000F8290010F82A0010F42A001004ED00E08B
:1023F00080B483B000AF054B1B687B607B681846D8
:102400000C37BD465DF8047B704700BFE82A00101A
:1024100080B582B000AF00F01DFF00237B60044B4D
:102420001B683B603B6818460837BD4680BD00BF4F
:10243000E82A001080B586B000AF00237B61504BC6
:102440001B68002B40F08C804E4B1B6801333B61B6
:102450004C4A3B6913603B69002B1FD14A4B1B68F8
:102460001B68002B09D04FF0A00383F31188BFF342
:102470006F8FBFF34F8F3B60FEE7434B1B68FB60E2
:10248000424B1B68404A1360404AFB681360404B54
:102490001B6801333E4A136000F096FA3D4B1B68FF
:1024A0003A699A424DD3384B1B681B68002B01D107
:1024B000012300E00023002B04D0364B4FF0FF3205
:1024C0001A603EE0304B1B68DB68DB68BB60BB68B2
:1024D0005B687B603A697B689A4203D22D4A7B68CD
:1024E00013602EE0BB6804331846FFF74FFCBB684F
:1024F0009B6A002B04D0BB6818331846FFF746FCD4
:10250000BB68DB6A01229A40234B1B681343224AB3
:102510001360BB68DA6A13469B0013449B001F4A92
:102520001A44BB68043319461046FFF7D2FBBB6858
:10253000DA6A1B4B1B68DB6A9A42B4D301237B61C6
:10254000B1E7174B1B68DA6A144913469B00134422
:102550009B000B441B68012B07D901237B6104E01E
:10256000104B1B6801330F4A13600F4B1B68002B85
:1025700001D001237B617B6918461837BD4680BDB9
:102580000C2B0010E82A0010B02A0010B42A00100A
:10259000FC2A0010042B0010EC2A0010FC2900106B
:1025A000F8290010F42A0010F82A001080B588B02D
:1025B00000AF394B1B68002B03D0384B01221A6047
:1025C00065E0364B00221A60354B1B681B6BFB61C4
:1025D0004FF0A533BB61FB691B68BA699A4211D100
:1025E000FB6904331B68BA699A420BD1FB69083353
:1025F0001B68BA699A4205D1FB690C331B68BA693A
:102600009A4208D0264B1A68254B1B68343319466A
:102610001046FFF705FC234B1B68FB60FB68B3FA11
:1026200083F3FB72FB7AC3F11F037B611E497A6956
:1026300013469B0013449B000B441B68002B09D1DD
:102640004FF0A00383F31188BFF36F8FBFF34F8F59
:102650007B60FEE77A6913469B0013449B00124A95
:1026600013443B613B695B685A683B695A603B694C
:102670005A683B6908339A4204D13B695B685A68DF
:102680003B695A603B695B68DB68054A136000BFC1
:102690002037BD4680BD00BF0C2B0010F82A00106B
:1026A000F8290010EC2A0010FC29001080B584B035
:1026B00000AF786039607B68002B09D14FF0A00330
:1026C00083F31188BFF36F8FBFF34F8FFB60FEE77B
:1026D000074B1B68183319467868FFF71EFB01216A
:1026E000386800F053FB00BF1037BD4680BD00BF07
:1026F000F829001080B586B000AF78607B68DB6891
:10270000DB683B613B69002B09D14FF0A00383F3E9
:102710001188BFF36F8FBFF34F8FFB60FEE73B69FC
:1027200018331846FFF732FB1D4B1B68002B1CD1DA
:102730003B6904331846FFF729FB3B69DB6A01223A
:102740009A40184B1B681343164A13603B69DA6AB8
:1027500013469B0013449B00134A1A443B690433FD
:1027600019461046FFF7B5FA05E03B6918331946DC
:102770000E48FFF7AEFA3B69DA6A0D4B1B68DB6A5D
:102780009A4205D901237B610A4B01221A6001E0BC
:1027900000237B617B6918461837BD4680BD00BFAA
:1027A0000C2B0010EC2A0010FC290010B82A001095
:1027B000F8290010F82A001080B483B000AF7860C8
:1027C000064B1A687B681A60054B1A687B685A606A
:1027D00000BF0C37BD465DF8047B7047FC2A001033
:1027E000E82A001080B588B000AF786039607B6857
:1027F000002B09D14FF0A00383F31188BFF36F8F33
:10280000BFF34F8F3B61FEE73B68002B09D14FF0D0
:10281000A00383F31188BFF36F8FBFF34F8FFB606B
:10282000FEE700F03BFC194B1B68BB617B685B68F3
:10283000BA69D31A7B617B681A68154B1B689A4288
:1028400007D07B685B68BA699A4202D30123FB61B7
:1028500015E03B681B687A699A420BD23B681A689C
:102860007B69D21A3B681A607868FFF7A5FF0023DE
:10287000FB6104E03B6800221A600123FB6100F069
:102880003BFCFB6918462037BD4680BDE82A001096
:10289000FC2A001080B400AF034B01221A6000BF75
:1028A000BD465DF8047B7047F82A001080B582B001
:1028B00000AF786000F04CF8064B1B68012BF9D98B
:1028C000054B4FF080521A60BFF34F8FBFF36F8FED
:1028D000F0E700BFFC29001004ED00E080B582B0F5
:1028E00000AF00237B600CE07A6813469B00134422
:1028F0009B00104A13441846FFF7BEF97B6801336A
:102900007B607B68062BEFD90B48FFF7B5F90B48C6
:10291000FFF7B2F90A48FFF7AFF90A48FFF7ACF939
:10292000094B054A1A60094B044A1A6000BF083770
:10293000BD4680BDFC290010882A00109C2A00108A
:10294000B82A0010CC2A0010B02A0010B42A0010B7
:1029500080B582B000AF19E000F0A0FB0F4BDB6840
:10296000DB687B607B6804331846FFF70FFA0C4B7B
:102970001B68013B0A4A13600A4B1B68013B094A6A
:10298000136000F0B9FB786800F00EF8054B1B6887
:10299000002BE1D100BF0837BD4680BDCC2A001016
:1029A000E42A0010E02A001080B582B000AF786001
:1029B0007B681B6B1846FEF727FD7868FEF724FD41
:1029C00000BF0837BD4680BD80B483B000AF0F4B59
:1029D0001B681B68002B01D1012300E00023002BA2
:1029E00004D00B4B4FF0FF321A6008E0074B1B6816
:1029F000DB68DB687B607B685B68054A136000BF4F
:102A00000C37BD465DF8047B704700BFB02A00104C
:102A1000042B001080B584B000AF78607B68BB6089
:102A20000023FB607B68002B6ED0BB68DA6A394BF1
:102A30001B68DB6A9A425ED2BB689B69002B06DB8F
:102A4000344B1B68DB6AC3F10702BB689A61BB6841
:102A50005969BB68DA6A13469B0013449B002E4AEF
:102A60001344994201D1012300E00023002B3AD006
:102A7000BB6804331846FFF789F90346002B15D1CC
:102A8000BB68DA6A244913469B0013449B000B443D
:102A90001B68002B0AD1BB68DB6A012202FA03F330
:102AA000DA431E4B1B6813401C4A1360194B1B680A
:102AB000DA6ABB68DA62BB68DB6A01229A40174BAC
:102AC0001B681343154A1360BB68DA6A13469B0000
:102AD00013449B00104A1A44BB680433194610463D
:102AE000FFF7F7F804E00B4B1B68DA6ABB68DA62A1
:102AF0000123FB6008E0BB689A6C064B1B68DB6A2D
:102B00009A4201D20123FB60FB6818461037BD468C
:102B100080BD00BFF8290010FC290010EC2A00102D
:102B200080B586B000AF78607B683B6100237B6135
:102B30007B68002B6CD0394B1B683A699A4209D0EC
:102B40004FF0A00383F31188BFF36F8FBFF34F8F54
:102B5000FB60FEE73B69DB6C002B09D14FF0A00363
:102B600083F31188BFF36F8FBFF34F8FBB60FEE716
:102B70003B69DB6C5A1E3B69DA643B69DA6A3B6984
:102B80009B6C9A4244D03B69DB6C002B40D13B6983
:102B900004331846FFF7FAF80346002B15D13B69BA
:102BA000DA6A1F4913469B0013449B000B441B68C1
:102BB000002B0AD13B69DB6A012202FA03F3DA43F4
:102BC000184B1B681340174A13603B699A6C3B69AA
:102BD000DA623B69DB6AC3F107023B699A613B69D0
:102BE000DB6A01229A400F4B1B6813430D4A1360A6
:102BF0003B69DA6A13469B0013449B00084A1A4457
:102C00003B69043319461046FFF763F801237B61E3
:102C10007B6918461837BD4680BD00BFF8290010F3
:102C2000FC290010EC2A001080B588B000AF786055
:102C300039607B68BB6101237B617B68002B00F0FE
:102C40008680BB69DB6C002B09D14FF0A00383F3B6
:102C50001188BFF36F8FBFF34F8FFB60FEE7BB6937
:102C60009B6C3A689A4202D93B68FB6102E0BB69FF
:102C70009B6CFB61BB69DB6AFA699A4267D0BB69EE
:102C8000DB6C7A699A4262D1334B1B68BA699A420B
:102C900009D14FF0A00383F31188BFF36F8FBFF307
:102CA0004F8FBB60FEE7BB69DB6A3B61BB69FA69BA
:102CB000DA62BB699B69002B04DBFB69C3F1070285
:102CC000BB699A61BB6959693A6913469B00134411
:102CD0009B00224A1344994201D1012300E00023C2
:102CE000002B34D0BB6904331846FFF74FF8034676
:102CF000002B15D1BB69DA6A184913469B001344AF
:102D00009B000B441B68002B0AD1BB69DB6A0122C4
:102D100002FA03F3DA43124B1B681340104A1360A4
:102D2000BB69DB6A01229A400D4B1B6813430C4AB6
:102D30001360BB69DA6A13469B0013449B00074A81
:102D40001A44BB69043319461046FEF7C2FF00BFA0
:102D50002037BD4680BD00BFF8290010FC290010B7
:102D6000EC2A001080B400AF074B1B68002B04D086
:102D7000054B1B68DA6C0132DA64034B1B6818469A
:102D8000BD465DF8047B7047F829001080B584B01B
:102D900000AF78603960214B1B68FB60204B1B68DB
:102DA00004331846FEF7F2FF0346002B0BD11C4BF1
:102DB0001B68DB6A012202FA03F3DA43194B1B6832
:102DC0001340184A1360FA687B681344BB60144BC5
:102DD0001B68BA685A60BA68FB689A4209D2124BFB
:102DE0001A680F4B1B68043319461046FEF795FF0F
:102DF00010E00E4B1A680A4B1B6804331946104644
:102E0000FEF78BFF0A4B1B68BA689A4202D2084A47
:102E1000BB68136000BF1037BD4680BDE82A0010B4
:102E2000F8290010EC2A0010B42A0010B02A001073
:102E3000042B001080B485B000AFF860B9607A60F0
:102E4000FB68043BFB60FB684FF080721A60FB6814
:102E5000043BFB60BB6823F00102FB681A60FB685F
:102E6000043BFB600C4AFB681A60FB68143BFB6088
:102E70007A68FB681A60FB68043BFB60FB686FF0D4
:102E800002021A60FB68203BFB60FB68184614379F
:102E9000BD465DF8047B70479D2E001A80B485B056
:102EA00000AF00237B60114B1B68B3F1FF3F09D0DB
:102EB0004FF0A00383F31188BFF36F8FBFF34F8FE1
:102EC000FB60FEE74FF0A00383F31188BFF36F8F21
:102ED000BFF34F8FBB6000BF7B68002BFCD000BFEF
:102EE0001437BD465DF8047B704700BF000000103A
:102EF000074B19680868B0E8F04F80F30988BFF302
:102F00006F8F4FF0000080F311887047AFF300809F
:102F1000F829001000BF00BF08480068006880F36F
:102F200008884FF0000080F3148862B661B6BFF3E2
:102F30004F8FBFF36F8F00DF00BF00BF08ED00E0D1
:102F400080B588B000AF4C4B1B684C4A934209D106
:102F50004FF0A00383F31188BFF36F8FBFF34F8F40
:102F6000BB61FEE7444B1B68454A934209D14FF0D1
:102F7000A00383F31188BFF36F8FBFF34F8F7B6183
:102F8000FEE7404BFB61FB691B78DBB2BB60FB6972
:102F9000FF221A70FB691B78DBB2FB71FB79DBB295
:102FA00023F05F03DAB2384B1A70384B07221A60ED
:102FB00009E0364B1B68013B344A1360FB79DBB2F6
:102FC0005B00DBB2FB71FB79DBB203F08003802B8B
:102FD000EFD02E4B1B68C3F10703032B09D04FF032
:102FE000A00383F31188BFF36F8FBFF34F8F3B6153
:102FF000FEE7264B1B68C3F10703032B09D04FF0F4
:10300000A00383F31188BFF36F8FBFF34F8FFB6073
:10301000FEE71E4B1B681B021C4A13601B4B1B6800
:1030200003F4E063194A1360BB68DAB2FB691A70F3
:10303000174B1B68164A43F460031360144B1B685C
:10304000134A43F06043136000F0D6F8114B00229E
:103050001A6000F0F5F8104B1B680F4A43F040432C
:103060001360FFF759FFFFF7A1FAFFF717FF0023DF
:1030700018462037BD4680BD00ED00E071C20F410B
:1030800070C20F4100E400E0102B0010142B001060
:1030900020ED00E00000001034EF00E080B483B0C9
:1030A00000AF4FF0A00383F31188BFF36F8FBFF31E
:1030B0004F8F7B600E4B1B6801330D4A13600C4B26
:1030C0001B68012B0ED10B4B1B68DBB2002B09D008
:1030D0004FF0A00383F31188BFF36F8FBFF34F8FBF
:1030E0003B60FEE700BF0C37BD465DF8047B7047D0
:1030F0000000001004ED00E080B483B000AF114B7D
:103100001B68002B09D14FF0A00383F31188BFF394
:103110006F8FBFF34F8F7B60FEE70A4B1B68013B4D
:10312000084A1360074B1B68002B04D100233B6047
:103130003B6883F3118800BF0C37BD465DF8047B04
:10314000704700BF00000010FFFFFFFFFFFFFFFF01
:10315000EFF30980BFF36F8F154B1A681EF0100F45
:1031600008BF20ED108A20E9F04F10602DE909001A
:103170004FF0A00080F31188BFF34F8FBFF36F8F24
:10318000FFF714FA4FF0000080F3118809BC1968AA
:103190000868B0E8F04F1EF0100F08BFB0EC108ABE
:1031A00080F30988BFF36F8F704700BFAFF30080D3
:1031B000F829001000BF00BF80B582B000AF4FF00B
:1031C000A00383F31188BFF36F8FBFF34F8F7B6032
:1031D000FFF730F90346002B03D0064B4FF0805227
:1031E0001A6000233B603B6883F3118800BF0837F7
:1031F000BD4680BD04ED00E080B400AF0B4B002263
:103200001A600B4B00221A600A4B1B680A4AA2FB89
:1032100003239B09094A013B1360044B07221A60F0
:1032200000BFBD465DF8047B704700BF10E000E0C2
:1032300018E000E0C02B0010D34D621014E000E055
:10324000DFF80C00016841F470010160704700BFB5
:1032500088ED00E080B485B000AFEFF30583FB603C
:10326000FB680F2B13D9164AFB6813441B78FB72BB
:10327000144B1B78FA7A9A4209D24FF0A00383F3D9
:103280001188BFF36F8FBFF34F8F7B60FEE70E4B4C
:103290001B6803F4E0620D4B1B689A4209D94FF09A
:1032A000A00383F31188BFF36F8FBFF34F8F3B6091
:1032B000FEE700BF1437BD465DF8047B704700BFD2
:1032C000F0E300E0102B00100CED00E0142B0010D8
:1032D00080B483B000AF0346FB7197F90730002B31
:1032E0000CDBFB7903F01F02074997F907305B09F4
:1032F000012000FA02F2603341F8232000BF0C37AE
:10330000BD465DF8047B704700E100E080B500AF8A
:103310000020FFF7DDFF044B1B68002B02D0024B9F
:103320001B68984700BF80BD182B001080B483B085
:1033300000AF7860044A7B68C2F8843C00BF0C3759
:10334000BD465DF8047B70470060084080B483B0E0
:1033500000AF7860084611461A460346FB700B46DC
:10336000BB7013467B70FA78BB7878787968520125
:103370000A44134402461A7000BF0C37BD465DF87C
:10338000047B704780B483B000AF78600B46FB705D
:103390001346BB70FA787B6802F5006253F822107E
:1033A000BB78012202FA03F3FA7819437B6802F52D
:1033B000006243F8221000BF0C37BD465DF8047B65
:1033C000704780B483B000AF78600B46FB70134643
:1033D000BB70FA787B6802F5006253F82210BB7864
:1033E000012202FA03F3DB43FA7819407B6802F505
:1033F000006243F8221000BF0C37BD465DF8047B25
:10340000704780B483B000AF78607B685B6843F03E
:1034100002027B685A6000BF0C37BD465DF8047B32
:10342000704780B485B000AFF860B9607A603B60E7
:10343000FB681B6823F0FF02BB681A437B681A43D2
:103440003B681A43FB681A6000BF1437BD465DF83D
:10345000047B704780B483B000AF786039607B68CC
:103460005B6823F004023B681A437B685A6000BF24
:103470000C37BD465DF8047B704780B483B000AF65
:1034800078607B680122DA6500BF0C37BD465DF8C5
:10349000047B704780B483B000AF78600B46FB704C
:1034A000FA787B681A6000BF0C37BD465DF8047B74
:1034B000704780B483B000AF78607B681B68DBB274
:1034C00018460C37BD465DF8047B704780B483B066
:1034D00000AF786039607B683A68DA6000BF0C370B
:1034E000BD465DF8047B704780B483B000AF786060
:1034F0007B685B6918460C37BD465DF8047B7047F6
:1035000080B582B000AF00237B6017E07B685B0072
:103510000E4A13443B603B6819783B685B781A4657
:103520000B48FFF72FFF3B6819783B685A78002358
:103530000748FFF70BFF7B6801337B607B68052B37
:10354000E4D900BF0837BD4680BD00BF18AF001AE0
:1035500000400F4080B582B000AF00237B600FE0D9
:103560007B685B000A4A13443B603B6819783B6800
:103570005B781A460748FFF724FF7B6801337B60BE
:103580007B68032BECD900BF0837BD4680BD00BF68
:1035900024AF001A00400F4080B582B000AF002376
:1035A0007B600FE07B685B000A4A13443B603B682A
:1035B00019783B685B781A460748FFF702FF7B687B
:1035C00001337B607B68082BECD900BF0837BD4610
:1035D00080BD00BF2CAF001A00400F4080B500AF87
:1035E000002000F0CBF940F60800FFF79FFE0349EA
:1035F000002000F0DDF900BF80BD00BF40420F0099
:1036000080B500AF0A4801F005FB00210848FFF72C
:1036100021FF0023002207210548FFF702FF05498B
:10362000034801F0BCFA0248FFF7EBFE00BF80BD83
:1036300000500C40A086010080B582B000AF3B4630
:103640001946094800F0C6FB3B46084A1946064899
:1036500000F004FC3B4600221946034800F030FC11
:1036600000BF0837BD4680BD00300E40801A0600FE
:1036700080B500AF084800F061FA4FF4E131064828
:1036800000F0A0FA03210448FFF720FF0248FFF7EB
:10369000F4FE00BF80BD00BF00100C4080B582B0BA
:1036A00000AF0346FB7100BF0848FFF71DFF03464C
:1036B00003F02003002BF7D0FB7919460348FFF7EE
:1036C000E9FE00BF0837BD4680BD00BF00100C40BA
:1036D00080B500AF0848FFF707FF034603F001037A
:1036E000002B04D00448FFF7E4FE034601E04FF04E
:1036F000FF33184680BD00BF00100C4080B500AFFE
:10370000FFF7B6FF094801F0E1F8FFF745FFFFF7C3
:1037100093FFFFF775FFFFF761FFFFF7F1FEFFF77C
:1037200019FF00F0E3FB00BF80BD00BF00400F4069
:1037300080B582B000AF78607B68DBB21846FFF7D7
:10374000ADFF00BF0837BD4680BD80B500AFFFF7B5
:10375000BFFF0346184680BD80B500AFFFF788FF66
:1037600000BF80BD80B483B000AF0346FB710B4641
:10377000BB711346BB800748F979BB79BA88490108
:103780000B4440F8232000BF0C37BD465DF8047B96
:10379000704700BF0060084080B584B000AF78601B
:1037A00039600023FB6014E0FB689B007A681344D7
:1037B0001878FB689B007A6813445978FB689B0073
:1037C0007A6813445B881A46FFF7CCFFFB68013325
:1037D000FB60FA683B689A42E6D300BF1037BD46EB
:1037E00080BDFFFF80B485B000AF78607B68104A71
:1037F000A2FB0323DB0DFB600E4BD3F8203123F437
:103800007042FB681B030B491343C1F82031094B7D
:10381000D3F8243123F47042FB681B03054913439A
:10382000C1F8243100BF1437BD465DF8047B7047F2
:103830007D26D6630030044080B500AF1D210248CC
:10384000FFF7AAFF00BF80BD44AF001A80B582B069
:1038500000AF1848FFF7C6FF01221649062001F005
:1038600085F800237B6011E07B689B00124A1344BB
:103870003B603B6818783B6859783B689A783B68AE
:10388000DB7800F0FDFE7B6801337B607B68002BFA
:10389000EAD00A4B5B68094A23F00C035360074BDC
:1038A0005B68064A43F00303536000BF0837BD4618
:1038B00080BD00BF00CB280C40AF001A0030044090
:1038C00080B500AFFFF7B8FFFFF7C0FF00BF80BDB6
:1038D00080B582B000AF0346FB71FA790749134601
:1038E000DB009B1A9B000B4404331B88184600F036
:1038F00079FF00BF0837BD4680BD00BF040000103F
:1039000080B582B000AF0346FB71FA7907491346D0
:10391000DB009B1A9B000B4404331B88184600F005
:1039200091FF034618460837BD4680BD04000010CD
:1039300080B485B000AF03460A46FB711346BB71E5
:10394000FA791346DB009B1A9B000B4A1344FB6079
:10395000BB79012B0AD1FB681B691433BB6000BF24
:10396000BB681B78DBB2042BFAD000E000BF143731
:10397000BD465DF8047B70470400001080B582B03E
:1039800000AF0346FB71FB791846FFF7A1FFFA79F8
:1039900006491346DB009B1A9B000B441B686C22F4
:1039A0009A6100BF0837BD4680BD00BF040000100B
:1039B00080B584B000AF03463960FB71FB791846CF
:1039C000FFF79EFF02463B68B2FBF3F3FB60FA7918
:1039D00010491346DB009B1A9B000B441B68FA68D6
:1039E00052081A61FA790B491346DB009B1A9B00B7
:1039F0000B441B681969FA7906481346DB009B1AC9
:103A00009B0003441B68FA68521A5A6100BF1037C2
:103A1000BD4680BD0400001080B483B000AF786064
:103A20007B680022DA6500BF0C37BD465DF8047B79
:103A3000704780B483B000AF786039607B683A68C3
:103A40009A6000BF0C37BD465DF8047B704780B4B8
:103A500083B000AF786039607B683A68DA6000BF95
:103A60000C37BD465DF8047B704780B483B000AF6F
:103A700078607B68DB6843F080027B68DA6000BFB7
:103A80000C37BD465DF8047B704780B483B000AF4F
:103A900078607B68DB6823F080027B68DA6000BFB7
:103AA0000C37BD465DF8047B704780B483B000AF2F
:103AB00078600B46FB701346BB70FA787B681A601F
:103AC000BA787B685A6000BF0C37BD465DF8047B4E
:103AD0007047FFFF80B485B000AF78607B68FB6003
:103AE000FB68124A934213D0FB68104A934204D8F1
:103AF000FB680F4A934209D010E0FB680D4A9342DD
:103B000008D0FB680C4A934206D007E0002306E089
:103B1000012304E0022302E0032300E0002318460F
:103B20001437BD465DF8047B704700BF0020084095
:103B30000010084000100C4000200C4080B584B0FC
:103B400000AF78607868FFF7C5FF02461B4B33F87B
:103B5000120001230122012100F006FE07217868EE
:103B6000FFF767FF7868FFF757FF7B6800225A600E
:103B70007B680022DA607B6800221A627B68002280
:103B8000DA647B6800225A657B6800221A657B68CC
:103B90000B4A934205D17B6800221A617B689B69BE
:103BA000FB6003217868FFF752FF7B6810229A625E
:103BB000FB6800BF1037BD4680BD00BFB8AF001A1C
:103BC00000200840F0B58FB000AF78603960002366
:103BD0007B6301233B630023FB624FF0FF333B62B7
:103BE0007868FFF777FF0246504B33F812301846DB
:103BF00000F028FE78610123BB6263E000237B6252
:103C000057E07B691A464FF0000315091407BB6A99
:103C10001A464FF0000302FB05F004FB03F14618BF
:103C2000A4FB020173181946BA6A7B6A13443A6806
:103C300002FB03F31A464FF0000301F07BFF02463C
:103C40000B46C7E90223BB68FB61D7E902014FF0CD
:103C500000024FF000030A0000231346BB61FB691A
:103C6000002B05DAFB695B42FB61BB690133BB6179
:103C70003A6AFB699A4218D3BB69002B15D0BB691D
:103C80001B0C002B11D1BB69022B02D87B6A002BC5
:103C90000BD1BB697B637B6AFB62BB6A3B63FB69DD
:103CA0003B62FB69002B09D000E000BF7B6A013357
:103CB0007B627A6ABB6A9A42A3D300E000BFBB6A08
:103CC0000133BB623B6A002B02D0BB6A0F2B95D934
:103CD0007B6B002B01D1002324E07868FFF7C5FE41
:103CE0007B6BD9B27B6B1B0ADBB21A467868FFF795
:103CF000DCFE7868FFF7C9FE3B6B1B01DAB2FB6A9A
:103D000003F00F031A437B689A627B691B093A6BC5
:103D100002FB03F2396BFB6A0B44796B01FB03F383
:103D2000B2FBF3F318463C37BD46F0BDC0AF001AF6
:103D300080B400AF0B231846BD465DF8047B704786
:103D400080B485B000AF78607B68074A934202D1A7
:103D50000423FB8101E00323FB81FB891846143710
:103D6000BD465DF8047B704700400E4080B588B0CA
:103D700000AFF8607A601A460B46FB721346BB72BE
:103D8000F868FFF7DDFF0346184600F05BFDB861F9
:103D9000FB7A002B05D0BA7A7B6802FB03F3FB6148
:103DA00007E0FFF7C5FF03461A467B6802FB03F3F3
:103DB000FB61BB695A00FB691A44FB695B00B2FBFB
:103DC000F3F3DBB2013BFB75FB7D18462037BD46A4
:103DD00080BDFFFF80B586B000AF786039600023FA
:103DE0007B617868FFF7ACFF034618460123012288
:103DF000012100F0B9FC7B680022DA607B6943F4A2
:103E000000137B613B68144A1A603B6800221A71F8
:103E10000B233B613B6800225A713B681A683B697F
:103E2000DBB200217868FFF7A1FF0346FB73FB7B41
:103E30001B021A467B6913437B613B681B795B0459
:103E400003F460237A6913437B617B687A691A60A3
:103E500000BF1837BD4680BD801A060080B586B009
:103E600000AFF860B9607A60FB681B6823F46F23C9
:103E700023F470637B61BB687A681A60BB68597908
:103E8000BB681B79C3F10B03DBB27A68F868FFF7F4
:103E90006DFF0346FB74FB7C1B021A467B691343D0
:103EA0007B61BB681B795B0403F460237A6913436D
:103EB0007B61FB687A691A6000BF1837BD4680BD18
:103EC00080B584B000AFF860B9601346FB71BB6881
:103ED000FA791A71BB681B681A46B968F868FFF767
:103EE000BDFF00BF1037BD4680BDFFFF80B500AFEE
:103EF000692000F0A7FC0246014B1A6000BF80BD9C
:103F0000C02B001080B483B000AF78607B68002BBA
:103F100002DA7B685B4200E07B6818460C37BD46DE
:103F20005DF8047B7047FFFF80B588B000AF786014
:103F300039607B68FB613B681B6803F08003002BE2
:103F400005D03B681B6823F040023B681A600123E0
:103F5000BB616FE000233B6166E001237B615AE0B7
:103F60003B681B6803F04003002B0ED03B69013314
:103F70007A6902FA03F31A463B685B6903FB02F2B3
:103F8000BB69B2FBF3F3FB6008E03B685B697A69ED
:103F900002FB03F2BB69B2FBF3F3FB60FB68294A47
:103FA000934234D9FB68284A934239D83B681B684E
:103FB00003F08003002B02D0FB68BB6005E03B6987
:103FC0000133FA6822FA03F3BB607A68BB68D31A3C
:103FD0001846FFF797FF0246FB69934218D93B68E2
:103FE000BA699A603B695A1C3B68DA603B687A6937
:103FF0001A613B68BA689A613B68FA68DA617A6864
:10400000BB68D31A1846FFF77DFFF86100E000BFD8
:104010007B6901337B617B69B3F5807FA0DD00E0C4
:1040200000BF3B6901333B613B69032B95DDBB69F5
:104030000133BB61BB69042B8CDD00BF2037BD465B
:1040400080BD00BFFF5E4C0900D01213B0B59EB01A
:1040500000AF7860396007F10C0360220021184638
:1040600002F078FDFB6843F08003FB603B685B690E
:104070003B623B681B793B7407F10C031946786877
:10408000FFF752FF7B6A7A689A420AD13B681D4665
:1040900007F10C040FCC0FC594E80F0085E80F0062
:1040A0008EE07B6A7A68D31A1846FFF72BFF034627
:1040B000FB66FB6C23F04003FB643B685B693B667B
:1040C0003B681B7987F8503007F10C0340331946E1
:1040D0007868FFF729FF7B6E7A689A420AD13B68BD
:1040E0001D4607F14C040FCC0FC594E80F0085E87E
:1040F0000F0065E07B6E7A68D31A1846FFF702FF5F
:1041000003467B677B68304A93421AD84023FB62A0
:104110003B685B693B6407F10C0320331946786800
:10412000FFF702FF7B6C7A689A420AD13B681D4612
:1041300007F12C040FCC0FC594E80F0085E80F00A1
:104140003EE07B6C7A68D31A1846FFF7DBFE034625
:104150003B67FA6E3B6F9A4219DCFA6E7B6F9A42AC
:104160000ADC3B681D4607F10C040FCC0FC594E830
:104170000F0085E80F0023E03B681D4607F14C0463
:104180000FCC0FC594E80F0085E80F0018E03A6FD8
:104190007B6F9A420ADC3B681D4607F12C040FCC6A
:1041A0000FC594E80F0085E80F0009E03B681D4645
:1041B00007F14C040FCC0FC594E80F0085E80F0001
:1041C0007837BD46B0BD00BF80778E0680B584B01D
:1041D00000AF03460A46FB711346BB71BB79184614
:1041E00000F060F90346FB73BB79184600F07AF9DA
:1041F000B860FB7B184600F091F90246BB680133BA
:10420000B2FBF3F318461037BD4680BD80B485B0CD
:1042100000AF0346FB801C23FB730023BB6024E03C
:104220001D49BA6813465B0013445B000B441B88AE
:10423000FA889A4216D31849BA6813465B001344A9
:104240005B000B4402331B88FA889A420AD8124951
:10425000BA6813465B0013445B000B4404331B78BD
:10426000FB7302E0BB680133BB60FB7B1C2B0BD1F3
:104270000949BA6813465B0013445B000B440433DE
:104280001B78FA7B9A42CBD1FB7B18461437BD468C
:104290005DF8047B704700BFC8AF001A80B483B0DC
:1042A00000AF4FF47A733B60154B9B697B607B6872
:1042B00023F002037B60124B9B697A689A4202D01A
:1042C0000F4A7B6893617B6823F001037B600D4B91
:1042D0001B680D4A934203D97B6843F004037B605B
:1042E000074A7B68936100BF3B685A1E3A60002B07
:1042F000FAD100BF0C37BD465DF8047B704700BFA4
:104300000000054014AF001AFF2C310180B582B0C7
:1043100000AF786039603B681B79184600F0FEF802
:1043200002463B685A617B682B4A934207D87B68F8
:104330002A4A934203D93B685B69002B02D14FF0B4
:10434000FF3344E03B6880221A603B6800229A6099
:104350003B680022DA603B685B697A68B2FBF3F382
:104360001A463B681A617B681D4A934209D93B682B
:104370001B691A463B685B6903FB02F37A689A4241
:104380000FD039687868FFF761FE3B689B68002BA7
:1043900002D14FF0FF331AE03B689B685A1E3B681E
:1043A0009A603B681B69002B02D14FF0FF330EE08F
:1043B0003B68DB68002B04D03B68DB685A1E3B6817
:1043C000DA603B681B695A1E3B681A610023184675
:1043D0000837BD4680BD00BF00CB280CEFC5940058
:1043E000FF5E4C0980B58CB000AF2C4B5B6CFB6260
:1043F000FB6A1B0EDBB203F00F03DBB2184600F0C2
:104400008DF8B862264B1B687B60244B1B6C03F055
:104410000103002B01D100233BE0FB6A1B0CDBB244
:104420007B62FB6A1B0B03F003033B62FB6A1B0A04
:1044300003F00303FB61FB6ADB0903F00103BB61CB
:10444000FB6A9B0903F001037B617B6A01333B61DB
:104450003B6A0133FB603A1DFB6913441B78BB6068
:10446000BB69002B02D17B69002B07D0BA6AFB68BD
:10447000B2FBF3F33A6902FB03F30AE0BB685B00AB
:104480003A69B2FBF3F3B96AFA68B1FBF2F202FBE4
:1044900003F318463037BD4680BD00BF000005401D
:1044A00034B0001A80B485B000AF0346FB710C4AEB
:1044B000FB79123352F82330FB60FB6803F00103F1
:1044C000002B01D0112305E0FB681B0EDBB203F0CB
:1044D0001F03DBB218461437BD465DF8047B7047F6
:1044E0000000054080B483B000AF0346FB71094A69
:1044F000FB79123352F823309B08DAB2FB79064974
:10450000CB5C1340DBB218460C37BD465DF8047B2C
:10451000704700BF0000054038B0001A80B584B075
:1045200000AF0346FB710023FB60FB79112B7FD8A2
:1045300001A252F823F000BF8145001A8945001AF4
:104540008F45001AA345001ABD45001A3146001ACE
:10455000C545001ACD45001AD545001ADD45001A9B
:104560003146001A3146001AE545001AF345001A93
:104570000146001A0F46001A1D46001A2B46001A63
:104580004FF40043FB6056E02D4BFB6053E02D4B96
:10459000D3F82C3103F00703042B4BD02A4BFB60DC
:1045A00048E0284BD3F82C3103F00703042B02D04A
:1045B000254BFB603FE0254BFB603CE0244B1B6838
:1045C000FB6038E0234B1B68FB6034E0224B1B6828
:1045D000FB6030E0204B5B68FB602CE0FFF702FFE4
:1045E000F86028E0FB7900211846FFF7EFFDF8603E
:1045F00021E0FB7901211846FFF7E8FDF8601AE099
:10460000FB7902211846FFF7E1FDF86013E0FB7922
:1046100003211846FFF7DAFDF8600CE0FB7904216E
:104620001846FFF7D3FDF86005E00023FB6002E0C9
:1046300000BF00E000BFFB6818461037BD4680BDD4
:10464000001BB7000030044040787D0180F0FA0282
:1046500010AF001A14AF001A1C2B001080B582B0E6
:1046600000AF0346FB71FB79184600F057F803468C
:104670001846FFF753FF034618460837BD4680BD6E
:1046800090B484B000AF0446084611461A4623464B
:10469000FB710346BB710B467B7113463B711D4A90
:1046A000FB7916339B0013445B68FB60FB791B2B83
:1046B00022D8BB79112B28D0FA68174B1340FB6026
:1046C0007B79002B03D0FB6843F40063FB603B79EC
:1046D000002B03D0FB6843F00103FB60BB791B0692
:1046E0001A46FB681343FB600A4AFB7916339B00AA
:1046F0001344FA685A6008E00649FB79FA6842F008
:10470000010216339B000B445A6000BF1037BD46B0
:1047100090BC704700000540FEF7FFE080B485B014
:1047200000AF0346FB71FB791B2B01D9112313E06A
:104730000C4AFB7916339B0013445B68FB60FB68F3
:1047400003F00103002B01D0112305E0FB681B0ED1
:10475000DBB203F01F03DBB218461437BD465DF829
:10476000047B70470000054080B485B000AF3B601B
:104770000346FB800B467B7113463B710123FB60B4
:104780007B79002B03D0FB6843F00203FB603B798D
:10479000002B03D0FB6843F00403FB603B68022B53
:1047A00003D1FB6843F02003FB60FB88B3F5A17FD6
:1047B00008D30A49FB88A3F5A1732033FA6841F8AE
:1047C000332005E00649FB882033FA6841F833209E
:1047D00000BF1437BD465DF8047B704700200540DC
:1047E0000010054080B483B000AF0346FB80FB8817
:1047F000B3F5A17F10D3114AFB88A3F5A173203331
:1048000052F833200D49FB88A3F5A17342F0010251
:10481000203341F833200BE0094AFB88203352F85B
:1048200033200749FB8842F00102203341F833204E
:1048300000BF0C37BD465DF8047B70470020054083
:104840000010054080B586B000AF0346FB80FB88B2
:10485000B3F5A17F08D31B4AFB88A3F5A1732033CE
:1048600052F833307B6105E0174AFB88203352F859
:1048700033307B617B6903F00103002B1BD0FB8885
:104880001846FFF7C3FC0346FB72FB7A1846FFF796
:10489000E5FEF8607B695B0903F00703002B02D19A
:1048A00001233B6101E002233B61FA683B69B2FBF3
:1048B000F3F3FB6001E00023FB60FB681846183748
:1048C000BD4680BD002005400010054080B483B087
:1048D00000AF786000BF0C37BD465DF8047B7047C1
:1048E00080B400AF054B5B6C044A43F00103536492
:1048F00000BFBD465DF8047B704700BF0000054067
:1049000080B483B000AF78607B681B681A467B6810
:104910001B791B0613437A681269120413437A68E1
:104920009268120313437A68D26812021343054A4D
:1049300043F40063536400BF0C37BD465DF8047B4D
:10494000704700BF0000054080B400AF064B1B6CF1
:1049500003F00103002B14BF01230023DBB2184630
:10496000BD465DF8047B70470000054090B58FB0F0
:1049700000AF03463960FB711346BB714CF25033F4
:10498000BB6200233B630023FB62FB79062B01D152
:10499000FFF784FCF979002301220420FFF770FE61
:1049A000FFF79EFFFB793B7307F108031946386850
:1049B000FFF7ACFC3B683D4A934216D9BB6803F055
:1049C0004003002B00D0FEE7BB6803F08003002B00
:1049D00006D001233B63BB6823F08003BB6004E087
:1049E0000123FB627B6901337B6107F108031846F1
:1049F000FFF786FF00BFFFF7A7FF0346002BFAD0A3
:104A00000023012209210420FFF73AFE3B6B002B13
:104A100012D04CF25033BB6200BFBB6A5A1EBA625E
:104A2000002BFAD1BB6843F08003BB6007F1080399
:104A30001846FFF765FF13E0FB6A002B10D04CF21D
:104A40005033BB6200BFBB6A5A1EBA62002BFAD158
:104A50007B69013B7B6107F108031846FFF750FFB4
:104A6000BB79002B1ED000237B6318E0104A7B6BC0
:104A700012F823000E4A7B6B9B00134459780C4AB2
:104A80007B6B9B0013449C78094A7B6B9B0013440F
:104A9000DB782246FFF7F4FD7B6B01337B637B6B96
:104AA000112BE3D900BF3C37BD4690BD80778E0601
:104AB00040B0001A80B485B000AFF860B9607A6089
:104AC0003B60FB681B6823F0FF02BB681A437B68EE
:104AD0001A433B681A43FB681A6000BF1437BD468F
:104AE0005DF8047B704780B483B000AF78603960B4
:104AF0007B685B6823F004023B681A437B685A605A
:104B000000BF0C37BD465DF8047B704780B485B0AC
:104B100000AF78607B68074A934202D1A523FB81EE
:104B200001E08323FB81FB8918461437BD465DF8FD
:104B3000047B704700500C4080B485B000AF7860B3
:104B40007B68084A934203D14FF4F173FB8102E082
:104B500040F20223FB81FB8918461437BD465DF8FD
:104B6000047B704700500C4080B487B000AFF86001
:104B7000B9607A60FB681B6823F47F437B61BB6884
:104B80001B029AB27B691A43FB681A60FB687A6859
:104B90001A6100BF1C37BD465DF8047B704780B5C5
:104BA00086B000AF786039607868FFF7C5FF0346CC
:104BB0001846FFF747FEB86000237B614FF0FF33D4
:104BC0003B610223FB6017E07B690133FA6802FB5B
:104BD00003F3BA68B2FBF3F33B613A693B689A426C
:104BE0000AD97B6901337B617B69FF2B04D90023E0
:104BF0007B61FB680233FB603A693B689A42E3D809
:104C0000FA6879697868FFF7AFFF00BF1837BD46CB
:104C100080BDFFFF80B582B000AF78607868FFF795
:104C200075FF03461846FFF7DDFD7868FFF784FF40
:104C300003461846FFF7D6FD00217868FFF753FFBB
:104C40000023002207217868FFF734FF03497868C2
:104C5000FFF7A5FF00BF0837BD4680BDA086010055
:104C600080B483B000AF084B1B697B607B6803F4A2
:104C70007F63202B01D1012300E0002318460C376D
:104C8000BD465DF8047B704730EF00E080B500AFB3
:104C90000A4B0B4A9A60FFF7E3FF0346002B07D04D
:104CA000064BD3F88830054A43F47003C2F88830C5
:104CB000FEF706FEFEF722FD00BF80BD00ED00E01E
:104CC0000000001A80B483B000AF7860074A7B68A8
:104CD0001360074B1B68064A43F00103136001236E
:104CE00018460C37BD465DF8047B70473C00001049
:104CF000001000E080B483B000AF0346FB710B46A8
:104D0000BB711346BB800748F979BB79BA88490162
:104D10000B4440F8232000BF0C37BD465DF8047BF0
:104D2000704700BF0060084090B583B000AF0446F4
:104D3000084611461A462346FB710346BB710B46D3
:104D4000BB801346FB70FB789AB2BB8813439AB2C0
:104D5000B979FB791846FFF7CDFF00BF0C37BD4688
:104D600090BD80B483B000AF7860084611461A4603
:104D70000346FB700B46BB7013467B70FA78BB781A
:104D80007878796852010A44134402461A7000BFC9
:104D90000C37BD465DF8047B704780B485B000AF2A
:104DA000F860B9601346FB71FB79F968BA68520183
:104DB0000A4413441B78DBB2002B14BF01230023E9
:104DC000DBB218461437BD465DF8047B704780B4EB
:104DD00085B000AFF8607A601A460B46FB72134646
:104DE000BB72BB7A002B0ED0FA7AFB6802F5006228
:104DF00053F82210FA7A7B681943FB6802F50062C7
:104E000043F822100EE0FA7AFB6802F5006253F8CC
:104E100022107B68DB43FA7A1940FB6802F50062D6
:104E200043F8221000BF1437BD465DF8047B70477D
:104E300080B485B000AFB9607A603B600346FB7315
:104E400097F90F201F4913469B0013440B4493F915
:104E50000020BB681A7097F90F201A4913469B006F
:104E600013440B44013393F900207B681A7097F9BF
:104E70000F20144913469B0013440B44023393F94B
:104E800000203B681A7097F90F200E4913469B00CB
:104E900013440B44033393F90020BB691A7097F94C
:104EA0000F20084913469B0013440B44043393F925
:104EB0000020FB691A7000BF1437BD465DF8047B03
:104EC000704700BF88B0001A90B587B002AF0346A4
:104ED0000A46FB711346BB7197F9073013F1020FB5
:104EE00001D10023CAE097F90730B3F1FF3F01D1A8
:104EF0000023C3E00123FB730023BB7300237B73F8
:104F000000233B730023FB720023BB7207F10C04E8
:104F100007F10D0207F10E0197F9070007F10A03E7
:104F2000019307F10B0300932346FFF781FFBB7941
:104F3000052B00F29F8001A252F823F05D4F001A6A
:104F40002D50001A914F001AC54F001AF94F001A40
:104F5000554F001A4B48FFF7B9FC8EE097F90E3019
:104F6000D8B297F90D30D9B297F90C30DBB2D02214
:104F7000FFF7DAFE97F90B30D9B297F90A301A46E3
:104F8000012393401A4600233E48FFF720FF74E0B8
:104F900097F90E30D8B297F90D30D9B297F90C3095
:104FA000DBB2C022FFF7C0FE97F90B30D9B297F9F8
:104FB0000A301A46012393401A4600233148FFF76E
:104FC00006FF5AE097F90E30D8B297F90D30D9B2F2
:104FD00097F90C30DBB2D822FFF7A6FE97F90B3019
:104FE000D9B297F90A301A46012393401A46002392
:104FF0002448FFF7ECFE40E097F90E30D8B297F95D
:105000000D30D9B297F90C30DBB2C822FFF78CFE15
:1050100097F90B30D9B297F90A301A460123934019
:105020001A4600231748FFF7D2FE26E097F90E3004
:10503000D8B297F90D30D9B297F90C30DBB2D02243
:10504000FFF772FE97F90B30D9B297F90A301A467A
:10505000012393401A4601230A48FFF7B8FE97F947
:105060000B30D9B297F90A30DAB200230548FFF7BE
:1050700078FE02E00023FB7300BFFB7B1846143769
:10508000BD4690BD00400F4090B587B002AF0346CB
:105090000A46FB711346BB7197F9073013F1020FF3
:1050A00001D1002333E097F90730B3F1FF3F01D17D
:1050B00000232CE00123FB730023BB7300237B73CD
:1050C00000233B730023FB720023BB7207F10C0427
:1050D00007F10D0207F10E0197F9070007F10A0326
:1050E000019307F10B0300932346FFF7A1FE97F905
:1050F0000B30D9B297F90A30DAB2BB79002B14BF62
:1051000001230023DBB20448FFF72BFEFB7B18468C
:105110001437BD4690BD00BF00400F4090B587B02A
:1051200002AF0346FB7197F9073013F1020F01D16B
:10513000012330E097F90730B3F1FF3F01D100239D
:1051400029E00023FB730023BB7300237B73002340
:105150003B730023FB720023BB7207F10C0407F1C1
:105160000D0207F10E0197F9070007F10A030193F9
:1051700007F10B0300932346FFF75AFE97F90B3014
:10518000194697F90A30DBB21A460548FFF705FEC3
:105190000346FB73FB7B18461437BD4690BD00BF2A
:1051A00000400F4080B500AF044B1B681B68DB68F4
:1051B000034A12681046984700BF80BDC42B0010F8
:1051C000242B001080B500AFFEF790FE194B1B6832
:1051D0001846FFF777FD05210020FFF775FE002137
:1051E0002420FFF771FE00212520FFF76DFE00212E
:1051F0002620FFF769FE00212720FFF765FE012129
:105200002820FFF761FE01212920FFF75DFE012123
:105210002A20FFF759FE01212B20FFF755FE01211F
:105220002C20FFF751FE01212D20FFF74DFE00BF7E
:1052300080BD00BFC02B001081F0004102E000BF24
:1052400083F0004330B54FEA41044FEA430594EA46
:10525000050F08BF90EA020F1FBF54EA000C55EA81
:10526000020C7FEA645C7FEA655C00F0E2804FEA52
:105270005454D4EB5555B8BF6D420CDD2C4480EA34
:10528000020281EA030382EA000083EA010180EA64
:10529000020281EA0303362D88BF30BD11F0004FB2
:1052A0004FEA01314FF4801C4CEA113102D04042E8
:1052B00061EB410113F0004F4FEA03334CEA133323
:1052C00002D0524263EB430394EA050F00F0A7803B
:1052D000A4F10104D5F1200E0DDB02FA0EFC22FA36
:1052E00005F2801841F1000103FA0EF2801843FA2A
:1052F00005F359410EE0A5F120050EF1200E012A1B
:1053000003FA0EFC28BF4CF0020C43FA05F3C01858
:1053100051EBE37101F0004507D54FF0000EDCF1D1
:10532000000C7EEB00006EEB0101B1F5801F1BD37A
:10533000B1F5001F0CD349085FEA30004FEA3C0C7E
:1053400004F101044FEA445212F5800F80F09A8074
:10535000BCF1004F08BF5FEA500C50F1000041EB78
:10536000045141EA050130BD5FEA4C0C404141EB7C
:10537000010111F4801FA4F10104E9D191F0000FA3
:1053800004BF01460020B1FA81F308BF2033A3F126
:105390000B03B3F120020CDA0C3208DD02F1140C1D
:1053A000C2F10C0201FA0CF021FA02F10CE002F158
:1053B0001402D8BFC2F1200C01FA02F120FA0CFC51
:1053C000DCBF41EA0C019040E41AA2BF01EB04519A
:1053D000294330BD6FEA04041F3C1CDA0C340EDC98
:1053E00004F11404C4F1200220FA04F001FA02F3DB
:1053F00040EA030021FA04F345EA030130BDC4F199
:105400000C04C4F1200220FA02F001FA04F340EA8D
:105410000300294630BD21FA04F0294630BD94F03E
:10542000000F83F4801306BF81F480110134013D25
:105430004EE77FEA645C18BF7FEA655C29D094EA96
:10544000050F08BF90EA020F05D054EA000C04BF14
:105450001946104630BD91EA030F1EBF00210020FF
:1054600030BD5FEA545C05D14000494128BF41F09E
:10547000004130BD14F580043CBF01F5801130BD02
:1054800001F0004545F0FE4141F470014FF000008D
:1054900030BD7FEA645C1ABF194610467FEA655C3E
:1054A0001CBF0B46024650EA013406BF52EA0335E0
:1054B00091EA030F41F4002130BD00BF90F0000FCE
:1054C00004BF0021704730B54FF4806404F132040A
:1054D0004FF000054FF0000150E700BF90F0000FC3
:1054E00004BF0021704730B54FF4806404F13204EA
:1054F00010F0004548BF40424FF000013EE700BFBA
:1055000042004FEAE2014FEA31014FEA02701FBF49
:1055100012F07F4393F07F4F81F06051704732F07B
:105520007F4208BF704793F07F4F04BF41F40021D2
:10553000704730B54FF4607401F0004521F0004130
:105540001CE700BF50EA010208BF704730B54FF0BA
:1055500000050AE050EA010208BF704730B511F0BB
:10556000004502D5404261EB41014FF4806404F1F3
:1055700032045FEA915C3FF4D8AE4FF003025FEA79
:10558000DC0C18BF03325FEADC0C18BF033202EBFD
:10559000DC02C2F1200300FA03FC20FA02F001FA57
:1055A00003FE40EA0E0021FA02F11444BDE600BFFA
:1055B00070B54FF0FF0C4CF4E06C1CEA11541DBFA9
:1055C0001CEA135594EA0C0F95EA0C0F00F0DEF874
:1055D0002C4481EA030621EA4C5123EA4C5350EA59
:1055E000013518BF52EA033541F4801143F48013AA
:1055F00038D0A0FB02CE4FF00005E1FB02E506F03B
:105600000042E0FB03E54FF00006E1FB03569CF08F
:10561000000F18BF4EF0010EA4F1FF04B6F5007F95
:1056200064F5407404D25FEA4E0E6D4146EB060607
:1056300042EAC62141EA55514FEAC52040EA5E5090
:105640004FEACE2EB4F1FD0C88BFBCF5E06F1ED83A
:10565000BEF1004F08BF5FEA500E50F1000041EB71
:10566000045170BD06F0004646EA010140EA02001E
:1056700081EA0301B4EB5C04C2BFD4EB0C0541EA40
:10568000045170BD41F480114FF0000E013C00F355
:10569000AB8014F1360FDEBF002001F0004170BD79
:1056A000C4F10004203C35DA0C341BDC04F1140492
:1056B000C4F1200500FA05F320FA04F001FA05F21E
:1056C00040EA020001F0004221F0004110EBD370EB
:1056D00021FA04F642EB06015EEA430E08BF20EA17
:1056E000D37070BDC4F10C04C4F1200500FA04F3BA
:1056F00020FA05F001FA04F240EA020001F000414C
:1057000010EBD37041F100015EEA430E08BF20EABE
:10571000D37070BDC4F1200500FA05F24EEA020E06
:1057200020FA04F301FA05F243EA020321FA04F035
:1057300001F0004121FA04F220EA020000EBD370EC
:105740005EEA430E08BF20EAD37070BD94F0000FEC
:105750000FD101F00046400041EB010111F4801F20
:1057600008BF013CF7D041EA060195F0000F18BFD1
:10577000704703F00046520043EB030313F4801F0D
:1057800008BF013DF7D043EA0603704794EA0C0FC7
:105790000CEA135518BF95EA0C0F0CD050EA4106DD
:1057A00018BF52EA4306D1D181EA030101F000415A
:1057B0004FF0000070BD50EA410606BF1046194682
:1057C00052EA430619D094EA0C0F02D150EA01368E
:1057D00013D195EA0C0F05D152EA03361CBF1046CF
:1057E00019460AD181EA030101F0004141F0FE416E
:1057F00041F470014FF0000070BD41F0FE4141F4F2
:10580000780170BD70B54FF0FF0C4CF4E06C1CEAF1
:1058100011541DBF1CEA135594EA0C0F95EA0C0FA6
:1058200000F0A7F8A4EB050481EA030E52EA033561
:105830004FEA013100F088804FEA03334FF0805582
:1058400045EA131343EA12634FEA022245EA1115AF
:1058500045EA10654FEA00260EF000419D4208BF60
:10586000964244F1FD0404F5407402D25B084FEA0D
:105870003202B61A65EB03055B084FEA32024FF4B9
:1058800080104FF4002CB6EB020E75EB030E22BF16
:10589000B61A754640EA0C005B084FEA3202B6EBD6
:1058A000020E75EB030E22BFB61A754640EA5C0085
:1058B0005B084FEA3202B6EB020E75EB030E22BF15
:1058C000B61A754640EA9C005B084FEA3202B6EB16
:1058D000020E75EB030E22BFB61A754640EADC00D5
:1058E00055EA060E18D04FEA051545EA16754FEA37
:1058F00006164FEAC30343EA52734FEAC2025FEA55
:105900001C1CC0D111F4801F0BD141EA00014FF0E3
:1059100000004FF0004CB6E711F4801F04BF0143B4
:105920000020B4F1FD0C88BFBCF5E06F3FF6AFAED0
:10593000B5EB030C04BFB6EB020C5FEA500C50F160
:10594000000041EB045170BD0EF0004E4EEA1131E3
:1059500014EB5C04C2BFD4EB0C0541EA045170BDEA
:1059600041F480114FF0000E013C90E645EA060E2E
:105970008DE60CEA135594EA0C0F08BF95EA0C0F5C
:105980003FF43BAF94EA0C0F0AD150EA01347FF4A4
:1059900034AF95EA0C0F7FF425AF104619462CE77B
:1059A00095EA0C0F06D152EA03353FF4FDAE1046DE
:1059B000194622E750EA410618BF52EA43067FF42F
:1059C000C5AE50EA41047FF40DAF52EA43057FF4BF
:1059D000EBAE12E74FF0FF3C06E000BF4FF0010CCA
:1059E00002E000BF4FF0010C4DF804CD4FEA410C2E
:1059F0007FEA6C5C4FEA430C18BF7FEA6C5C1BD0FB
:105A000001B050EA410C0CBF52EA430C91EA030F7B
:105A100002BF90EA020F0020704710F1000F91EAD8
:105A2000030F58BF994208BF90422CBFD8176FEAA6
:105A3000E37040F0010070474FEA410C7FEA6C5C74
:105A400002D150EA013C07D14FEA430C7FEA6C5C7B
:105A5000D6D152EA033CD3D05DF8040B704700BFA7
:105A60008446104662468C461946634600E000BFF5
:105A700001B5FFF7B7FF002848BF10F1000F01BDC7
:105A80004DF808EDFFF7F4FF0CBF012000205DF892
:105A900008FB00BF4DF808EDFFF7EAFF34BF012017
:105AA00000205DF808FB00BF4DF808EDFFF7E0FFB0
:105AB00094BF012000205DF808FB00BF4DF808ED01
:105AC000FFF7CEFF94BF012000205DF808FB00BF68
:105AD0004DF808EDFFF7C4FF34BF012000205DF84A
